{
  "contractName": "Person",
  "abi": [
    {
      "constant": false,
      "inputs": [
        {
          "name": "_studendId",
          "type": "uint256"
        },
        {
          "name": "_name",
          "type": "string"
        },
        {
          "name": "_age",
          "type": "uint256"
        },
        {
          "name": "_disabled",
          "type": "bool"
        }
      ],
      "name": "setProfile",
      "outputs": [],
      "payable": false,
      "stateMutability": "nonpayable",
      "type": "function"
    },
    {
      "constant": true,
      "inputs": [
        {
          "name": "_studentId",
          "type": "uint256"
        }
      ],
      "name": "getProfile",
      "outputs": [
        {
          "name": "_name",
          "type": "string"
        },
        {
          "name": "_age",
          "type": "uint256"
        },
        {
          "name": "_disabled",
          "type": "bool"
        }
      ],
      "payable": false,
      "stateMutability": "view",
      "type": "function"
    }
  ],
  "bytecode": "0x608060405234801561001057600080fd5b5061041b806100206000396000f3fe608060405234801561001057600080fd5b50600436106100365760003560e01c8063f08f4f641461003b578063fda9e22d146100f4575b600080fd5b6100676004803603602081101561005157600080fd5b81019080803590602001909291905050506101cf565b604051808060200184815260200183151515158152602001828103825285818151815260200191508051906020019080838360005b838110156100b757808201518184015260208101905061009c565b50505050905090810190601f1680156100e45780820380516001836020036101000a031916815260200191505b5094505050505060405180910390f35b6101cd6004803603608081101561010a57600080fd5b81019080803590602001909291908035906020019064010000000081111561013157600080fd5b82018360208201111561014357600080fd5b8035906020019184600183028401116401000000008311171561016557600080fd5b91908080601f016020809104026020016040519081016040528093929190818152602001838380828437600081840152601f19601f820116905080830192505050505050509192919290803590602001909291908035151590602001909291905050506102cb565b005b60606000806000808581526020019081526020016000206000016000808681526020019081526020016000206001015460008087815260200190815260200160002060020160009054906101000a900460ff16828054600181600116156101000203166002900480601f0160208091040260200160405190810160405280929190818152602001828054600181600116156101000203166002900480156102b75780601f1061028c576101008083540402835291602001916102b7565b820191906000526020600020905b81548152906001019060200180831161029a57829003601f168201915b505050505092509250925092509193909250565b6040518060600160405280848152602001838152602001821515815250600080868152602001908152602001600020600082015181600001908051906020019061031692919061034a565b506020820151816001015560408201518160020160006101000a81548160ff02191690831515021790555090505050505050565b828054600181600116156101000203166002900490600052602060002090601f016020900481019282601f1061038b57805160ff19168380011785556103b9565b828001600101855582156103b9579182015b828111156103b857825182559160200191906001019061039d565b5b5090506103c691906103ca565b5090565b6103ec91905b808211156103e85760008160009055506001016103d0565b5090565b9056fea165627a7a72305820802cca6811d56e653ff5484f58bf393c98e8d41b780dc77b504de8c2cfb25a070029",
  "source": "pragma solidity ^0.5.0;\n\ncontract Person {\n    \n    struct details{\n        string name;\n        uint age;\n        bool disabled;\n    }\n    \n    mapping(uint => details) profile;\n    \n    function setProfile(uint _studendId,string memory _name, uint _age, bool  _disabled) public {\n        profile[_studendId] = details(_name, _age, _disabled);\n    }\n\n    function getProfile(uint _studentId) public view returns(string memory _name, uint _age, bool _disabled) {\n        return (profile[_studentId].name, profile[_studentId].age, profile[_studentId].disabled);\n    }\n}",
  "sourcePath": "/home/user/Certi_Project (copy)/project/contracts/Person.sol",
  "compiler": {
    "name": "solc",
    "version": "0.5.8+commit.23d335f2.Emscripten.clang"
  },
  "schemaVersion": "3.0.15",
  "updatedAt": "2019-09-14T20:04:12.099Z",
  "devdoc": {
    "methods": {}
  },
  "userdoc": {
    "methods": {}
  }
}