{
  "contractName": "Student",
  "abi": [
    {
      "constant": true,
      "inputs": [
        {
          "name": "",
          "type": "uint256"
        }
      ],
      "name": "enrolled",
      "outputs": [
        {
          "name": "name",
          "type": "string"
        },
        {
          "name": "roomNo",
          "type": "uint256"
        }
      ],
      "payable": false,
      "stateMutability": "view",
      "type": "function"
    },
    {
      "constant": true,
      "inputs": [
        {
          "name": "_studentId",
          "type": "uint256"
        }
      ],
      "name": "getProfile",
      "outputs": [
        {
          "name": "_name",
          "type": "string"
        },
        {
          "name": "_age",
          "type": "uint256"
        },
        {
          "name": "_disabled",
          "type": "bool"
        }
      ],
      "payable": false,
      "stateMutability": "view",
      "type": "function"
    },
    {
      "constant": false,
      "inputs": [
        {
          "name": "_studendId",
          "type": "uint256"
        },
        {
          "name": "_name",
          "type": "string"
        },
        {
          "name": "_age",
          "type": "uint256"
        },
        {
          "name": "_disabled",
          "type": "bool"
        }
      ],
      "name": "setProfile",
      "outputs": [],
      "payable": false,
      "stateMutability": "nonpayable",
      "type": "function"
    },
    {
      "constant": false,
      "inputs": [
        {
          "name": "_studendId",
          "type": "uint256"
        },
        {
          "name": "_courseName",
          "type": "string"
        },
        {
          "name": "_roomNo",
          "type": "uint256"
        }
      ],
      "name": "enrollment",
      "outputs": [],
      "payable": false,
      "stateMutability": "nonpayable",
      "type": "function"
    },
    {
      "constant": true,
      "inputs": [
        {
          "name": "_studendId",
          "type": "uint256"
        }
      ],
      "name": "getDetails",
      "outputs": [
        {
          "components": [
            {
              "name": "name",
              "type": "string"
            },
            {
              "name": "age",
              "type": "uint256"
            },
            {
              "name": "disabled",
              "type": "bool"
            }
          ],
          "name": "_profile",
          "type": "tuple"
        },
        {
          "components": [
            {
              "name": "name",
              "type": "string"
            },
            {
              "name": "roomNo",
              "type": "uint256"
            }
          ],
          "name": "_courses",
          "type": "tuple"
        },
        {
          "name": "_url",
          "type": "string"
        }
      ],
      "payable": false,
      "stateMutability": "view",
      "type": "function"
    },
    {
      "constant": false,
      "inputs": [
        {
          "name": "_studentId",
          "type": "uint256"
        },
        {
          "name": "_name",
          "type": "string"
        },
        {
          "name": "_age",
          "type": "uint256"
        },
        {
          "name": "_disabled",
          "type": "bool"
        },
        {
          "name": "_courseName",
          "type": "string"
        },
        {
          "name": "_roomNo",
          "type": "uint256"
        }
      ],
      "name": "setStudent",
      "outputs": [],
      "payable": false,
      "stateMutability": "nonpayable",
      "type": "function"
    },
    {
      "constant": false,
      "inputs": [
        {
          "name": "_studentId",
          "type": "uint256"
        },
        {
          "name": "_url",
          "type": "string"
        }
      ],
      "name": "setIfpsUrl",
      "outputs": [],
      "payable": false,
      "stateMutability": "nonpayable",
      "type": "function"
    }
  ],
  "bytecode": "0x608060405234801561001057600080fd5b50610f1e806100206000396000f3fe608060405234801561001057600080fd5b506004361061007d5760003560e01c8063b93a89f71161005b578063b93a89f7146100eb578063cd4cf5421461011d578063f08f4f6414610139578063fda9e22d1461016b5761007d565b80635cf5fbdd146100825780636fdbff41146100b357806373c2d8b5146100cf575b600080fd5b61009c60048036036100979190810190610976565b610187565b6040516100aa929190610d40565b60405180910390f35b6100cd60048036036100c89190810190610ad5565b610243565b005b6100e960048036036100e491908101906109f3565b610316565b005b61010560048036036101009190810190610976565b61036d565b60405161011493929190610d70565b60405180910390f35b6101376004803603610132919081019061099f565b6105ef565b005b610153600480360361014e9190810190610976565b61061b565b60405161016293929190610d02565b60405180910390f35b61018560048036036101809190810190610a5a565b610717565b005b6001602052806000526040600020600091509050806000018054600181600116156101000203166002900480601f0160208091040260200160405190810160405280929190818152602001828054600181600116156101000203166002900480156102335780601f1061020857610100808354040283529160200191610233565b820191906000526020600020905b81548152906001019060200180831161021657829003601f168201915b5050505050908060010154905082565b6040518060600160405280868152602001858152602001841515815250600080888152602001908152602001600020600082015181600001908051906020019061028e929190610796565b506020820151816001015560408201518160020160006101000a81548160ff021916908315150217905550905050604051806040016040528083815260200182815250600160008881526020019081526020016000206000820151816000019080519060200190610300929190610796565b5060208201518160010155905050505050505050565b60405180604001604052808381526020018281525060016000858152602001908152602001600020600082015181600001908051906020019061035a929190610796565b5060208201518160010155905050505050565b610375610816565b61037d610839565b6060600080858152602001908152602001600020600160008681526020019081526020016000206002600087815260200190815260200160002082604051806060016040529081600082018054600181600116156101000203166002900480601f01602080910402602001604051908101604052809291908181526020018280546001816001161561010002031660029004801561045c5780601f106104315761010080835404028352916020019161045c565b820191906000526020600020905b81548152906001019060200180831161043f57829003601f168201915b50505050508152602001600182015481526020016002820160009054906101000a900460ff161515151581525050925081604051806040016040529081600082018054600181600116156101000203166002900480601f0160208091040260200160405190810160405280929190818152602001828054600181600116156101000203166002900480156105315780601f1061050657610100808354040283529160200191610531565b820191906000526020600020905b81548152906001019060200180831161051457829003601f168201915b505050505081526020016001820154815250509150808054600181600116156101000203166002900480601f0160208091040260200160405190810160405280929190818152602001828054600181600116156101000203166002900480156105db5780601f106105b0576101008083540402835291602001916105db565b820191906000526020600020905b8154815290600101906020018083116105be57829003601f168201915b505050505090509250925092509193909250565b80600260008481526020019081526020016000209080519060200190610616929190610853565b505050565b60606000806000808581526020019081526020016000206000016000808681526020019081526020016000206001015460008087815260200190815260200160002060020160009054906101000a900460ff16828054600181600116156101000203166002900480601f0160208091040260200160405190810160405280929190818152602001828054600181600116156101000203166002900480156107035780601f106106d857610100808354040283529160200191610703565b820191906000526020600020905b8154815290600101906020018083116106e657829003601f168201915b505050505092509250925092509193909250565b60405180606001604052808481526020018381526020018215158152506000808681526020019081526020016000206000820151816000019080519060200190610762929190610796565b506020820151816001015560408201518160020160006101000a81548160ff02191690831515021790555090505050505050565b828054600181600116156101000203166002900490600052602060002090601f016020900481019282601f106107d757805160ff1916838001178555610805565b82800160010185558215610805579182015b828111156108045782518255916020019190600101906107e9565b5b50905061081291906108d3565b5090565b604051806060016040528060608152602001600081526020016000151581525090565b604051806040016040528060608152602001600081525090565b828054600181600116156101000203166002900490600052602060002090601f016020900481019282601f1061089457805160ff19168380011785556108c2565b828001600101855582156108c2579182015b828111156108c15782518255916020019190600101906108a6565b5b5090506108cf91906108d3565b5090565b6108f591905b808211156108f15760008160009055506001016108d9565b5090565b90565b60008135905061090781610eb6565b92915050565b600082601f83011261091e57600080fd5b813561093161092c82610de9565b610dbc565b9150808252602083016020830185838301111561094d57600080fd5b610958838284610e63565b50505092915050565b60008135905061097081610ecd565b92915050565b60006020828403121561098857600080fd5b600061099684828501610961565b91505092915050565b600080604083850312156109b257600080fd5b60006109c085828601610961565b925050602083013567ffffffffffffffff8111156109dd57600080fd5b6109e98582860161090d565b9150509250929050565b600080600060608486031215610a0857600080fd5b6000610a1686828701610961565b935050602084013567ffffffffffffffff811115610a3357600080fd5b610a3f8682870161090d565b9250506040610a5086828701610961565b9150509250925092565b60008060008060808587031215610a7057600080fd5b6000610a7e87828801610961565b945050602085013567ffffffffffffffff811115610a9b57600080fd5b610aa78782880161090d565b9350506040610ab887828801610961565b9250506060610ac9878288016108f8565b91505092959194509250565b60008060008060008060c08789031215610aee57600080fd5b6000610afc89828a01610961565b965050602087013567ffffffffffffffff811115610b1957600080fd5b610b2589828a0161090d565b9550506040610b3689828a01610961565b9450506060610b4789828a016108f8565b935050608087013567ffffffffffffffff811115610b6457600080fd5b610b7089828a0161090d565b92505060a0610b8189828a01610961565b9150509295509295509295565b610b9781610e4d565b82525050565b610ba681610e4d565b82525050565b6000610bb782610e20565b610bc18185610e3c565b9350610bd1818560208601610e72565b610bda81610ea5565b840191505092915050565b6000610bf082610e15565b610bfa8185610e2b565b9350610c0a818560208601610e72565b610c1381610ea5565b840191505092915050565b6000610c2982610e15565b610c338185610e3c565b9350610c43818560208601610e72565b610c4c81610ea5565b840191505092915050565b60006040830160008301518482036000860152610c748282610be5565b9150506020830151610c896020860182610ce4565b508091505092915050565b60006060830160008301518482036000860152610cb18282610be5565b9150506020830151610cc66020860182610ce4565b506040830151610cd96040860182610b8e565b508091505092915050565b610ced81610e59565b82525050565b610cfc81610e59565b82525050565b60006060820190508181036000830152610d1c8186610bac565b9050610d2b6020830185610cf3565b610d386040830184610b9d565b949350505050565b60006040820190508181036000830152610d5a8185610c1e565b9050610d696020830184610cf3565b9392505050565b60006060820190508181036000830152610d8a8186610c94565b90508181036020830152610d9e8185610c57565b90508181036040830152610db28184610bac565b9050949350505050565b6000604051905081810181811067ffffffffffffffff82111715610ddf57600080fd5b8060405250919050565b600067ffffffffffffffff821115610e0057600080fd5b601f19601f8301169050602081019050919050565b600081519050919050565b600081519050919050565b600082825260208201905092915050565b600082825260208201905092915050565b60008115159050919050565b6000819050919050565b82818337600083830152505050565b60005b83811015610e90578082015181840152602081019050610e75565b83811115610e9f576000848401525b50505050565b6000601f19601f8301169050919050565b610ebf81610e4d565b8114610eca57600080fd5b50565b610ed681610e59565b8114610ee157600080fd5b5056fea265627a7a72305820c02594f92488b49675f673de5afea0001af24c7891d8b2e88976ee9a882d9d8d6c6578706572696d656e74616cf50037",
  "source": "pragma experimental ABIEncoderV2;\n\nimport \"./Person.sol\";\n\ncontract Student is Person {\n    \n    struct courses {\n        string name;\n        uint roomNo;\n    }\n    \n    mapping(uint => courses) public enrolled;\n\n    mapping(uint => string) ipfsUrl;\n    \n    function enrollment(uint _studendId, string memory _courseName, uint _roomNo) public {\n        enrolled[_studendId] = courses(_courseName, _roomNo);\n    }\n    \n    function getDetails(uint _studendId) public view returns(details memory _profile, courses memory _courses, string memory _url){\n        return (profile[_studendId], enrolled[_studendId], ipfsUrl[_studendId]);\n    }\n\n    function setStudent(uint _studentId, string memory _name, uint _age, bool  _disabled, string memory _courseName, uint _roomNo) public{\n        profile[_studentId] = details(_name, _age, _disabled);\n        enrolled[_studentId] = courses(_courseName, _roomNo);\n    }\n\n    function setIfpsUrl(uint _studentId, string memory _url) public {\n        ipfsUrl[_studentId] = _url;\n    }\n}",
  "sourcePath": "/home/user/Certi_Project (copy)/project/contracts/Student.sol",
  "compiler": {
    "name": "solc",
    "version": "0.5.8+commit.23d335f2.Emscripten.clang"
  },
  "schemaVersion": "3.0.15",
  "updatedAt": "2019-09-14T20:04:12.100Z",
  "devdoc": {
    "methods": {}
  },
  "userdoc": {
    "methods": {}
  }
}